01000000160014E215000012019061501001                                                                                                                                                                                                                                                                                                                                                                                                                                                              
020000002600120190615014036000000001534800                01201906150100036180500361561766BANCO INBURSA S A                       BII931004P61      4000000000000001234567EFECTIVALE S DE RL DE CV                EFE8908015L3      30607585                                BANCO INBURSA S A                       0000000000000000000001PAGO CUENTA PROVEEDOR CONTRATISTA                                     0020190615            3                             PAGO CUENTA PROVEEDOR CONTRATI
0900000036015000010000001000000000001534800                                                                                                                                                                                                                                                                                                                                                                                                                                                       
