01000000160014E214000012019061401001                                                                                                                                                                                                                                                                                                                                                                                                                                                              
020000002600120190614014036000000001534800                01201906140100036180500361561766BANCO INBURSA S A                       BII931004P61      4000000000000001234567EFECTIVALE S DE RL DE CV                EFE8908015L3      30607585                                BANCO INBURSA S A                       0000000000000000000001PAGO CUENTA PROVEEDOR CONTRATISTA                                     0020190614            3                             PAGO CUENTA PROVEEDOR CONTRATI
0900000036014000010000001000000000001534800                                                                                                                                                                                                                                                                                                                                                                                                                                                       
