01000000160014E218000012019061801001                                                                                                                                                                                                                                                                                                                                                                                                                                                              
020000002600120190618014012000000001227840                98201906180100072180003231359226BANCO MERCANTIL DEL NORTE SA            BMN930209927      0100000000000012345678EFECTIVALE S DE RL DE CV                EFE8908015L3      28833278                                BANCO MERCANTIL DEL NORTE SA            0000000000000000000001PAGO CUENTA PROVEEDOR CONTRATISTA                                     0020190618            5                             PAGO CUENTA PROVEEDOR CONTRATI
020000003600120190618014036000000002500000                01201906180100036180500351269298BANCO INBURSA S A                       BII931004P61      4000000000000012345678PASE SERVICIOS ELECTRONICOS SA DE CV    ISD950921HE5      28833730                                BANCO INBURSA S A                       0000000000000000000001PAGO CUENTA PROVEEDOR CONTRATISTA                                     0020190618            5                             PAGO CUENTA PROVEEDOR CONTRATI
0900000046018000010000002000000000003727840                                                                                                                                                                                                                                                                                                                                                                                                                                                       
